:060000000A128A110E280D
:10000800FE00030EF6000408F7000A08F8000A12BA
:100018008A111C280A128A1111280A128A115A21D7
:100028000A128A11FA00F90183010A128A11FB28BF
:10003800831203138C1E21282228A5281A08F900E8
:1000480008151A30F500F830F400F40B2928F50BE0
:100058002928000077288312031307120F300A1289
:100068008A11AE200A128A11FA009C2883120313FF
:10007800071206300A128A11AE200A128A11FA00F3
:100088009C2883120313071208300A128A11AE2023
:100098000A128A11FA009C288312031307120130EE
:1000A8000A128A11AE200A128A11FA009C288312B9
:1000B8000313071600300A128A11AE200A128A1199
:1000C800FA009C288312031306149C288312031336
:1000D80006109C28831203130C1E732874286E289C
:1000E800443099009C287908F400F5017508003A15
:1000F80003197F286E287408903A03196A28063A6B
:1001080003199C280F3A03199C28063A03196628F4
:100118006F3A03195B28013A03195028073A031963
:100128003A280E3A03194528013A03192F286E2850
:10013800831203130C1EA128A2289C287908990071
:100148008C1278088A0077088400760E8300FE0EE9
:100158007E0E0900F200E0288312031388140810A9
:1001680088150811F301F30AF9288312031388107C
:10017800081488110815F301F30AF92883120313E8
:100188008810081488150811F301F30AF928831256
:1001980003138814081088110815F301F30AF928C5
:1001A800831203138810081088110811F301F30A49
:1001B800F928AA30F300F9287208F000F101710853
:1001C800003A0319E828DD287008003A0319D428F2
:1001D800013A0319CB28073A0319B9280E3A03192B
:1001E800C228073A0319B028DD28730808000A1244
:1001F8008A1123210A128A111A3083120313A100CB
:10020800F730A000A00B0629A10B06290B290A121A
:100218008A1153210A128A110A128A113B210A12E1
:100228008A11831203130C1E1A291B291529413020
:100238009900061007161F290A128A110E2883161C
:1002480003130F168F160F17850110308600A03084
:1002580087008801831603178801083089002D302C
:10026800831203139F00831603139F01080083164C
:1002780003131815333099001812831203139817B3
:10028800831603138C160C120B178B171813831273
:1002980003131813181683160313981608008312ED
:0E02A800031388100810881108110800013493
:08400000FF3FFF3FFF3FFF3FC0
:04400E00F52FFF3F4C
:00000001FF
