:060000000A128A110E280D
:10000800FE00030EF6000408F7000A08F8000A12BA
:100018008A111C280A128A1111280A128A11282109
:100028000A128A11FA00F90183010A128A11D428E6
:10003800831203138C1E212822287E281A08F9000F
:100048005628071209300A128A1187200A128A11C3
:10005800FA007B28071206300A128A1187200A1232
:100068008A11FA007B28071208300A128A118720A1
:100078000A128A11FA007B28071201300A128A1123
:1000880087200A128A11FA007B28071600300A1204
:100098008A1187200A128A11FA007B2806147B2805
:1000A80006107B287908F400F5017508003A031951
:1000B8005E287B287408903A03195428063A0319D5
:1000C8007B280F3A03197B28063A031952286F3AFE
:1000D80003194928013A03194028073A03192E2819
:1000E8000E3A03193728013A031925287B28831269
:1000F80003138C1278088A0077088400760E830030
:10010800FE0E7E0E0900F200B9288312031388142C
:10011800081088150811F301F30AD2288312031373
:100128008810081488110815F301F30AD2288312DD
:1001380003138810081488150811F301F30AD2284C
:10014800831203138814081088110815F301F30AA1
:10015800D228831203138810081088110811F3019C
:10016800F30AD228AA30F300D2287208F000F1016D
:100178007108003A0319C128B6287008003A031913
:10018800AD28013A0319A428073A031992280E3A10
:1001980003199B28013A03198928B628730808000F
:1001A8000A128A11FA200A128A110A128A112121C6
:1001B8000A128A110A128A110F210A128A110230B0
:1001C80083120313A2000430A100B930A000A00BD1
:1001D800EB28A10BEB28A20BEB28F22883120313C0
:1001E80006100716F6280A128A110E28831603131A
:1001F800850110308600B030870088018316031708
:100208008801083089002D30831203139F0083165C
:1002180003139F0108008316031318150C30990067
:100228001812831203139817831603138C160B17CF
:100238008B178312031318160800831203138810F0
:0A02480008108811081108000134A5
:08400000FF3FFF3FFF3FFF3FC0
:04400E00F73FFF3F3A
:00000001FF
